:10000000F728FF3FFF3FFF3FFF00030E8301A500DE
:100010000408A4000A08A6008A017008A9000B1DA4
:100020005B28A00A203081000B118B16A10A4B28F7
:100030000130A1000A30F4002208F00017217808EE
:10004000F0007008A7006D20031383127008A7004A
:1000500039215B280A30F4002208F00017210A3009
:10006000F40017217808F0007008A7006D20031332
:1000700083127008A70032215B286430F400220844
:10008000F00017217008A7006D2003138312700879
:10009000A70040215B282108043A031918282108E9
:1000A000013A03191A282108023A03192A282108BB
:1000B000033A03193D280B1C6228A20A0608A30074
:1000C0000B108B152908F00026088A0024088400EC
:1000D000250E8300FF0E7F0E0900A8283F30031372
:1000E0008312F00008000630F00008005B30F000DA
:1000F00008004F30F00008006630F00008006D3056
:10010000F00008007D30F00008000730F000080023
:100110007F30F00008006F30F00008007730F0000A
:1001200008007C30F00008005830F00008005E3015
:10013000F00008007930F00008007130F00008008D
:100140007830F00008005C30F0000800F001080092
:10015000031383122708003A03196E282708013A6F
:10016000031973282708023A031976282708033A47
:10017000031979282708043A03197C282708053A27
:1001800003197F282708063A031982282708073A07
:10019000031985282708083A031988282708093AE7
:1001A00003198B2827080A3A03198E2827080B3AC7
:1001B0000319912827080C3A0319942827080D3AA7
:1001C0000319972827080F3A03199A282708103A85
:1001D00003199D282708113A0319A0282708123A65
:1001E0000319A3282708133A0319A62808000313A4
:1001F000831681018B010130810020308312810040
:100200008B1683168117F03086008B158312A001A0
:10021000A201A1014721AA30A8004D2128218B1756
:100220002008FF3A031D1529A001102916290313E0
:100230008312F8010830FC00700DF80D7408F80204
:1002400003182429F8070310F00DFC0B1C290800E3
:100250000313831685018312850183168801831297
:1002600088010800023003138312850027088800E4
:100270000800013003138312850027088800080056
:100280000430031383128500270888000800031335
:10029000831687018312870108000313831228083D
:1002A00087000800FF3FFF3FFF3FFF3FFF3FFF3F4B
:02400E007A3FF7
:00000001FF
